{
  "contractName": "Tether",
  "abi": [
    {
      "inputs": [],
      "stateMutability": "nonpayable",
      "type": "constructor"
    },
    {
      "anonymous": false,
      "inputs": [
        {
          "indexed": true,
          "internalType": "address",
          "name": "from",
          "type": "address"
        },
        {
          "indexed": true,
          "internalType": "address",
          "name": "to",
          "type": "address"
        },
        {
          "indexed": false,
          "internalType": "uint256",
          "name": "value",
          "type": "uint256"
        }
      ],
      "name": "Transfer",
      "type": "event"
    },
    {
      "inputs": [
        {
          "internalType": "address",
          "name": "",
          "type": "address"
        }
      ],
      "name": "balanceOf",
      "outputs": [
        {
          "internalType": "uint256",
          "name": "",
          "type": "uint256"
        }
      ],
      "stateMutability": "view",
      "type": "function",
      "constant": true
    },
    {
      "inputs": [],
      "name": "decimals",
      "outputs": [
        {
          "internalType": "uint256",
          "name": "",
          "type": "uint256"
        }
      ],
      "stateMutability": "view",
      "type": "function",
      "constant": true
    },
    {
      "inputs": [],
      "name": "name",
      "outputs": [
        {
          "internalType": "string",
          "name": "",
          "type": "string"
        }
      ],
      "stateMutability": "view",
      "type": "function",
      "constant": true
    },
    {
      "inputs": [],
      "name": "owner",
      "outputs": [
        {
          "internalType": "address",
          "name": "",
          "type": "address"
        }
      ],
      "stateMutability": "view",
      "type": "function",
      "constant": true
    },
    {
      "inputs": [],
      "name": "symbol",
      "outputs": [
        {
          "internalType": "string",
          "name": "",
          "type": "string"
        }
      ],
      "stateMutability": "view",
      "type": "function",
      "constant": true
    },
    {
      "inputs": [],
      "name": "totalSupply",
      "outputs": [
        {
          "internalType": "uint256",
          "name": "",
          "type": "uint256"
        }
      ],
      "stateMutability": "view",
      "type": "function",
      "constant": true
    },
    {
      "inputs": [
        {
          "internalType": "address",
          "name": "_to",
          "type": "address"
        },
        {
          "internalType": "uint256",
          "name": "_value",
          "type": "uint256"
        }
      ],
      "name": "transfer",
      "outputs": [
        {
          "internalType": "bool",
          "name": "success",
          "type": "bool"
        }
      ],
      "stateMutability": "nonpayable",
      "type": "function"
    }
  ],
  "bytecode": "0x60806040526040518060400160405280600681526020017f5465746865720000000000000000000000000000000000000000000000000000815250600090816200004a919062000374565b506040518060400160405280600481526020017f55534454000000000000000000000000000000000000000000000000000000008152506001908162000091919062000374565b50601260025569d3c21bcecceda1000000600355348015620000b257600080fd5b5033600460006101000a81548173ffffffffffffffffffffffffffffffffffffffff021916908373ffffffffffffffffffffffffffffffffffffffff1602179055506200045b565b600081519050919050565b7f4e487b7100000000000000000000000000000000000000000000000000000000600052604160045260246000fd5b7f4e487b7100000000000000000000000000000000000000000000000000000000600052602260045260246000fd5b600060028204905060018216806200017c57607f821691505b60208210810362000192576200019162000134565b5b50919050565b60008190508160005260206000209050919050565b60006020601f8301049050919050565b600082821b905092915050565b600060088302620001fc7fffffffffffffffffffffffffffffffffffffffffffffffffffffffffffffffff82620001bd565b620002088683620001bd565b95508019841693508086168417925050509392505050565b6000819050919050565b6000819050919050565b6000620002556200024f620002498462000220565b6200022a565b62000220565b9050919050565b6000819050919050565b620002718362000234565b6200028962000280826200025c565b848454620001ca565b825550505050565b600090565b620002a062000291565b620002ad81848462000266565b505050565b5b81811015620002d557620002c960008262000296565b600181019050620002b3565b5050565b601f8211156200032457620002ee8162000198565b620002f984620001ad565b8101602085101562000309578190505b620003216200031885620001ad565b830182620002b2565b50505b505050565b600082821c905092915050565b6000620003496000198460080262000329565b1980831691505092915050565b600062000364838362000336565b9150826002028217905092915050565b6200037f82620000fa565b67ffffffffffffffff8111156200039b576200039a62000105565b5b620003a7825462000163565b620003b4828285620002d9565b600060209050601f831160018114620003ec5760008415620003d7578287015190505b620003e3858262000356565b86555062000453565b601f198416620003fc8662000198565b60005b828110156200042657848901518255600182019150602085019450602081019050620003ff565b8683101562000446578489015162000442601f89168262000336565b8355505b6001600288020188555050505b505050505050565b6107b6806200046b6000396000f3fe608060405234801561001057600080fd5b506004361061007d5760003560e01c806370a082311161005b57806370a08231146100dc5780638da5cb5b1461010c57806395d89b411461012a578063a9059cbb146101485761007d565b806306fdde031461008257806318160ddd146100a0578063313ce567146100be575b600080fd5b61008a610178565b60405161009791906104d7565b60405180910390f35b6100a8610206565b6040516100b59190610512565b60405180910390f35b6100c661020c565b6040516100d39190610512565b60405180910390f35b6100f660048036038101906100f19190610590565b610212565b6040516101039190610512565b60405180910390f35b61011461022a565b60405161012191906105cc565b60405180910390f35b610132610250565b60405161013f91906104d7565b60405180910390f35b610162600480360381019061015d9190610613565b6102de565b60405161016f919061066e565b60405180910390f35b60008054610185906106b8565b80601f01602080910402602001604051908101604052809291908181526020018280546101b1906106b8565b80156101fe5780601f106101d3576101008083540402835291602001916101fe565b820191906000526020600020905b8154815290600101906020018083116101e157829003601f168201915b505050505081565b60035481565b60025481565b60056020528060005260406000206000915090505481565b600460009054906101000a900473ffffffffffffffffffffffffffffffffffffffff1681565b6001805461025d906106b8565b80601f0160208091040260200160405190810160405280929190818152602001828054610289906106b8565b80156102d65780601f106102ab576101008083540402835291602001916102d6565b820191906000526020600020905b8154815290600101906020018083116102b957829003601f168201915b505050505081565b600081600560003373ffffffffffffffffffffffffffffffffffffffff1673ffffffffffffffffffffffffffffffffffffffff16815260200190815260200160002054101561032c57600080fd5b81600560003373ffffffffffffffffffffffffffffffffffffffff1673ffffffffffffffffffffffffffffffffffffffff168152602001908152602001600020600082825461037b9190610718565b9250508190555081600560008573ffffffffffffffffffffffffffffffffffffffff1673ffffffffffffffffffffffffffffffffffffffff16815260200190815260200160002060008282546103d1919061074c565b925050819055508273ffffffffffffffffffffffffffffffffffffffff163373ffffffffffffffffffffffffffffffffffffffff167fddf252ad1be2c89b69c2b068fc378daa952ba7f163c4a11628f55a4df523b3ef846040516104359190610512565b60405180910390a36001905092915050565b600081519050919050565b600082825260208201905092915050565b60005b83811015610481578082015181840152602081019050610466565b60008484015250505050565b6000601f19601f8301169050919050565b60006104a982610447565b6104b38185610452565b93506104c3818560208601610463565b6104cc8161048d565b840191505092915050565b600060208201905081810360008301526104f1818461049e565b905092915050565b6000819050919050565b61050c816104f9565b82525050565b60006020820190506105276000830184610503565b92915050565b600080fd5b600073ffffffffffffffffffffffffffffffffffffffff82169050919050565b600061055d82610532565b9050919050565b61056d81610552565b811461057857600080fd5b50565b60008135905061058a81610564565b92915050565b6000602082840312156105a6576105a561052d565b5b60006105b48482850161057b565b91505092915050565b6105c681610552565b82525050565b60006020820190506105e160008301846105bd565b92915050565b6105f0816104f9565b81146105fb57600080fd5b50565b60008135905061060d816105e7565b92915050565b6000806040838503121561062a5761062961052d565b5b60006106388582860161057b565b9250506020610649858286016105fe565b9150509250929050565b60008115159050919050565b61066881610653565b82525050565b6000602082019050610683600083018461065f565b92915050565b7f4e487b7100000000000000000000000000000000000000000000000000000000600052602260045260246000fd5b600060028204905060018216806106d057607f821691505b6020821081036106e3576106e2610689565b5b50919050565b7f4e487b7100000000000000000000000000000000000000000000000000000000600052601160045260246000fd5b6000610723826104f9565b915061072e836104f9565b9250828203905081811115610746576107456106e9565b5b92915050565b6000610757826104f9565b9150610762836104f9565b925082820190508082111561077a576107796106e9565b5b9291505056fea264697066735822122078f666d4e1cafcdcd8218767592ad5c3189c15cfc0c92554b1ab262c32adbb6164736f6c63430008110033",
  "immutableReferences": {},
  "source": "pragma solidity ^0.8.17;\r\n\r\ncontract Tether {\r\n    string public name = \"Tether\";\r\n    string public symbol = \"USDT\";\r\n    uint256 public decimals = 18;\r\n    uint256 public totalSupply = 1000000000000000000000000; // 1 million tokens\r\n    address public owner;\r\n\r\n    constructor() public {\r\n        owner = msg.sender;\r\n    }\r\n    modifier onlyOwner()  {\r\n        require(msg.sender == owner);\r\n        _;\r\n    }\r\n    mapping(address => uint256) public balanceOf;\r\n\r\n    event Transfer(address indexed from, address indexed to, uint256 value);\r\n\r\n    function transfer(address _to, uint256 _value) public returns (bool success) {\r\n        require(balanceOf[msg.sender] >= _value);\r\n        balanceOf[msg.sender] -= _value;\r\n        balanceOf[_to] += _value;\r\n        emit Transfer(msg.sender, _to, _value);\r\n        return true;\r\n    }\r\n\r\n}",
  "sourcePath": "C:\\Users\\marvi\\OneDrive\\Desktop\\web3Apps\\defi-staking-app-starter\\defi-staking-app-starter\\contracts\\Tether.sol",
  "compiler": {
    "name": "solc",
    "version": "0.8.17+commit.8df45f5f.Emscripten.clang"
  },
  "schemaVersion": "3.4.11",
  "updatedAt": "2022-12-31T06:43:39.924Z",
  "networkType": "ethereum",
  "devdoc": {
    "kind": "dev",
    "methods": {},
    "version": 1
  },
  "userdoc": {
    "kind": "user",
    "methods": {},
    "version": 1
  }
}